{
  "_format": "hh-sol-artifact-1",
  "contractName": "ConfidentialPayrollFHE",
  "sourceName": "contracts/ConfidentialPayrollFHE.sol",
  "abi": [
    {
      "inputs": [
        {
          "internalType": "bytes32",
          "name": "_orgId",
          "type": "bytes32"
        }
      ],
      "stateMutability": "nonpayable",
      "type": "constructor"
    },
    {
      "inputs": [],
      "name": "NotAuthorized",
      "type": "error"
    },
    {
      "inputs": [],
      "name": "NotEmployee",
      "type": "error"
    },
    {
      "inputs": [],
      "name": "NotOwner",
      "type": "error"
    },
    {
      "anonymous": false,
      "inputs": [
        {
          "indexed": true,
          "internalType": "address",
          "name": "employee",
          "type": "address"
        },
        {
          "indexed": true,
          "internalType": "address",
          "name": "viewer",
          "type": "address"
        }
      ],
      "name": "AccessGranted",
      "type": "event"
    },
    {
      "anonymous": false,
      "inputs": [
        {
          "indexed": true,
          "internalType": "address",
          "name": "employee",
          "type": "address"
        },
        {
          "indexed": true,
          "internalType": "address",
          "name": "viewer",
          "type": "address"
        }
      ],
      "name": "AccessRevoked",
      "type": "event"
    },
    {
      "anonymous": false,
      "inputs": [
        {
          "indexed": true,
          "internalType": "address",
          "name": "employee",
          "type": "address"
        }
      ],
      "name": "BonusDistributedEncrypted",
      "type": "event"
    },
    {
      "anonymous": false,
      "inputs": [
        {
          "indexed": true,
          "internalType": "address",
          "name": "employee",
          "type": "address"
        }
      ],
      "name": "EmployeeAdded",
      "type": "event"
    },
    {
      "anonymous": false,
      "inputs": [
        {
          "indexed": true,
          "internalType": "address",
          "name": "employee",
          "type": "address"
        }
      ],
      "name": "EmployeeRemoved",
      "type": "event"
    },
    {
      "anonymous": false,
      "inputs": [
        {
          "indexed": false,
          "internalType": "uint256",
          "name": "employeeCount",
          "type": "uint256"
        }
      ],
      "name": "PayrollProcessedEncrypted",
      "type": "event"
    },
    {
      "anonymous": false,
      "inputs": [
        {
          "indexed": true,
          "internalType": "address",
          "name": "employee",
          "type": "address"
        }
      ],
      "name": "SalarySetEncrypted",
      "type": "event"
    },
    {
      "anonymous": false,
      "inputs": [
        {
          "indexed": true,
          "internalType": "address",
          "name": "employee",
          "type": "address"
        }
      ],
      "name": "SalaryWithdrawn",
      "type": "event"
    },
    {
      "inputs": [
        {
          "internalType": "address",
          "name": "employee",
          "type": "address"
        }
      ],
      "name": "addEmployee",
      "outputs": [],
      "stateMutability": "nonpayable",
      "type": "function"
    },
    {
      "inputs": [
        {
          "internalType": "address",
          "name": "employee",
          "type": "address"
        },
        {
          "internalType": "address",
          "name": "viewer",
          "type": "address"
        }
      ],
      "name": "canViewEmployeeData",
      "outputs": [
        {
          "internalType": "bool",
          "name": "",
          "type": "bool"
        }
      ],
      "stateMutability": "view",
      "type": "function"
    },
    {
      "inputs": [],
      "name": "getAllEmployees",
      "outputs": [
        {
          "internalType": "address[]",
          "name": "",
          "type": "address[]"
        }
      ],
      "stateMutability": "view",
      "type": "function"
    },
    {
      "inputs": [
        {
          "internalType": "uint256",
          "name": "index",
          "type": "uint256"
        }
      ],
      "name": "getEmployee",
      "outputs": [
        {
          "internalType": "address",
          "name": "",
          "type": "address"
        }
      ],
      "stateMutability": "view",
      "type": "function"
    },
    {
      "inputs": [],
      "name": "getEmployeeCount",
      "outputs": [
        {
          "internalType": "uint256",
          "name": "",
          "type": "uint256"
        }
      ],
      "stateMutability": "view",
      "type": "function"
    },
    {
      "inputs": [
        {
          "internalType": "address",
          "name": "employee",
          "type": "address"
        }
      ],
      "name": "getEncryptedBalance",
      "outputs": [
        {
          "internalType": "euint256",
          "name": "",
          "type": "uint256"
        }
      ],
      "stateMutability": "view",
      "type": "function"
    },
    {
      "inputs": [
        {
          "internalType": "address",
          "name": "employee",
          "type": "address"
        }
      ],
      "name": "getEncryptedBonus",
      "outputs": [
        {
          "internalType": "euint256",
          "name": "",
          "type": "uint256"
        }
      ],
      "stateMutability": "view",
      "type": "function"
    },
    {
      "inputs": [
        {
          "internalType": "address",
          "name": "employee",
          "type": "address"
        }
      ],
      "name": "getEncryptedSalary",
      "outputs": [
        {
          "internalType": "euint256",
          "name": "",
          "type": "uint256"
        }
      ],
      "stateMutability": "view",
      "type": "function"
    },
    {
      "inputs": [
        {
          "internalType": "address",
          "name": "viewer",
          "type": "address"
        }
      ],
      "name": "grantAccess",
      "outputs": [],
      "stateMutability": "nonpayable",
      "type": "function"
    },
    {
      "inputs": [
        {
          "internalType": "address",
          "name": "",
          "type": "address"
        }
      ],
      "name": "isEmployee",
      "outputs": [
        {
          "internalType": "bool",
          "name": "",
          "type": "bool"
        }
      ],
      "stateMutability": "view",
      "type": "function"
    },
    {
      "inputs": [],
      "name": "orgId",
      "outputs": [
        {
          "internalType": "bytes32",
          "name": "",
          "type": "bytes32"
        }
      ],
      "stateMutability": "view",
      "type": "function"
    },
    {
      "inputs": [],
      "name": "owner",
      "outputs": [
        {
          "internalType": "address",
          "name": "",
          "type": "address"
        }
      ],
      "stateMutability": "view",
      "type": "function"
    },
    {
      "inputs": [],
      "name": "processPayrollEncrypted",
      "outputs": [
        {
          "internalType": "euint256",
          "name": "",
          "type": "uint256"
        }
      ],
      "stateMutability": "nonpayable",
      "type": "function"
    },
    {
      "inputs": [
        {
          "internalType": "address",
          "name": "employee",
          "type": "address"
        }
      ],
      "name": "removeEmployee",
      "outputs": [],
      "stateMutability": "nonpayable",
      "type": "function"
    },
    {
      "inputs": [
        {
          "internalType": "address",
          "name": "viewer",
          "type": "address"
        }
      ],
      "name": "revokeAccess",
      "outputs": [],
      "stateMutability": "nonpayable",
      "type": "function"
    },
    {
      "inputs": [
        {
          "internalType": "address",
          "name": "employee",
          "type": "address"
        },
        {
          "internalType": "euint256",
          "name": "encryptedBonus",
          "type": "uint256"
        }
      ],
      "name": "setEncryptedBonus",
      "outputs": [],
      "stateMutability": "nonpayable",
      "type": "function"
    },
    {
      "inputs": [
        {
          "internalType": "address",
          "name": "employee",
          "type": "address"
        },
        {
          "internalType": "euint256",
          "name": "encryptedSalary",
          "type": "uint256"
        }
      ],
      "name": "setEncryptedSalary",
      "outputs": [],
      "stateMutability": "nonpayable",
      "type": "function"
    },
    {
      "inputs": [
        {
          "internalType": "euint256",
          "name": "encryptedAmount",
          "type": "uint256"
        }
      ],
      "name": "withdrawSalary",
      "outputs": [],
      "stateMutability": "nonpayable",
      "type": "function"
    }
  ],
  "bytecode": "0x608060405234801561001057600080fd5b506040516110a93803806110a983398101604081905261002f91610049565b600080546001600160a01b03191633179055600155610062565b60006020828403121561005b57600080fd5b5051919050565b611038806100716000396000f3fe608060405234801561001057600080fd5b50600436106101165760003560e01c8063b4f796a7116100a2578063d108177a11610071578063d108177a1461021f578063e03c012f14610232578063e3366fed1461027e578063ea66543f14610293578063f3cb8c31146102b657600080fd5b8063b4f796a7146101de578063bca9a5c5146101f1578063c183967414610204578063c2a63e3b1461021757600080fd5b80635e0dc52b116100e95780635e0dc52b1461017257806366a2e2661461017a5780636c08b8631461018d57806385e68531146101a05780638da5cb5b146101b357600080fd5b80630ae5e7391461011b5780631730bdfe146101305780632473debe1461014c578063402dc4e41461015f575b600080fd5b61012e610129366004610ef5565b6102c9565b005b61013960015481565b6040519081526020015b60405180910390f35b61013961015a366004610ef5565b610352565b61013961016d366004610ef5565b6103eb565b610139610484565b61012e610188366004610f10565b6105d0565b61012e61019b366004610f3a565b610693565b61012e6101ae366004610ef5565b61071b565b6000546101c6906001600160a01b031681565b6040516001600160a01b039091168152602001610143565b61012e6101ec366004610f10565b6107d0565b6101c66101ff366004610f3a565b610893565b610139610212366004610ef5565b6108e6565b600554610139565b61012e61022d366004610ef5565b61097f565b61026e610240366004610f53565b6001600160a01b03918216600090815260076020908152604080832093909416825291909152205460ff1690565b6040519015158152602001610143565b610286610a6d565b6040516101439190610f86565b61026e6102a1366004610ef5565b60066020526000908152604090205460ff1681565b61012e6102c4366004610ef5565b610acf565b3360009081526006602052604090205460ff166102f957604051630ae9c7ed60e01b815260040160405180910390fd5b3360008181526007602090815260408083206001600160a01b0386168085529252808320805460ff19166001179055519092917f9f520b3bfc56d06f7065d10b4683b3f57ac8895d5026cd176dee95ce1454cb8d91a350565b6001600160a01b03811660009081526006602052604081205460ff1661038b57604051630ae9c7ed60e01b815260040160405180910390fd5b6001600160a01b038216600090815260076020908152604080832033845290915290205460ff166103cf5760405163ea8e4eb560e01b815260040160405180910390fd5b506001600160a01b031660009081526002602052604090205490565b6001600160a01b03811660009081526006602052604081205460ff1661042457604051630ae9c7ed60e01b815260040160405180910390fd5b6001600160a01b038216600090815260076020908152604080832033845290915290205460ff166104685760405163ea8e4eb560e01b815260040160405180910390fd5b506001600160a01b031660009081526004602052604090205490565b600080546001600160a01b031633146104b0576040516330cd747160e01b815260040160405180910390fd5b60006104bc6000610c22565b905060005b600554811015610594576000600582815481106104e0576104e0610fd3565b60009182526020808320909101546001600160a01b03168083526002825260408084205460039093528320549093506105199190610c35565b6001600160a01b03831660009081526004602052604090205490915061053f9082610c35565b6001600160a01b0383166000908152600460205260409020556105628482610c35565b935061056e6000610c22565b6001600160a01b03909216600090815260036020526040902091909155506001016104c1565b506005546040519081527f2c0a633d66e2bdde781bec1df11a36b49effb983da762aabab7cc9bd6e441e8d9060200160405180910390a1905090565b6000546001600160a01b031633146105fb576040516330cd747160e01b815260040160405180910390fd5b6001600160a01b03821660009081526006602052604090205460ff1661063457604051630ae9c7ed60e01b815260040160405180910390fd5b6001600160a01b038216600081815260036020908152604080832085905560078252808320909152808220805460ff19166001179055517f72597f4002a960bb02bb6e8e4478ca0cc7d59cf02a4c8b40ea048e2ae631a1dd9190a25050565b3360009081526006602052604090205460ff166106c357604051630ae9c7ed60e01b815260040160405180910390fd5b336000908152600460205260409020546106dd9082610c6e565b3360008181526004602052604080822093909355915190917f52e3ccb07a3b332eaabaf2072f55fd09302dc583c48b03063c958965dfdd101191a250565b3360009081526006602052604090205460ff1661074b57604051630ae9c7ed60e01b815260040160405180910390fd5b6000546001600160a01b039081169082160361077a5760405163ea8e4eb560e01b815260040160405180910390fd5b3360008181526007602090815260408083206001600160a01b0386168085529252808320805460ff19169055519092917f825c8be24eb0df19500f63e86c29e7d0d951e73056b889b891d85e40938d9b6e91a350565b6000546001600160a01b031633146107fb576040516330cd747160e01b815260040160405180910390fd5b6001600160a01b03821660009081526006602052604090205460ff1661083457604051630ae9c7ed60e01b815260040160405180910390fd5b6001600160a01b038216600081815260026020908152604080832085905560078252808320909152808220805460ff19166001179055517f5cec6b3553c970eb9466db32714576c01fd286c5a17208600221620b9d8c59bf9190a25050565b60055460009082106108b85760405163ea8e4eb560e01b815260040160405180910390fd5b600582815481106108cb576108cb610fd3565b6000918252602090912001546001600160a01b031692915050565b6001600160a01b03811660009081526006602052604081205460ff1661091f57604051630ae9c7ed60e01b815260040160405180910390fd5b6001600160a01b038216600090815260076020908152604080832033845290915290205460ff166109635760405163ea8e4eb560e01b815260040160405180910390fd5b506001600160a01b031660009081526003602052604090205490565b6000546001600160a01b031633146109aa576040516330cd747160e01b815260040160405180910390fd5b6001600160a01b03811660009081526006602052604090205460ff166109e357604051630ae9c7ed60e01b815260040160405180910390fd5b6001600160a01b0381166000908152600660205260408120805460ff19169055610a0c81610c22565b6001600160a01b03831660008181526002602090815260408083208590556003825280832085905560049091528082208490555192935090917fabae6e64cb4315875c29d42347a312f5e9fce4ab564e9722b43dd78d0751135a9190a25050565b60606005805480602002602001604051908101604052809291908181526020018280548015610ac557602002820191906000526020600020905b81546001600160a01b03168152600190910190602001808311610aa7575b5050505050905090565b6000546001600160a01b03163314610afa576040516330cd747160e01b815260040160405180910390fd5b6001600160a01b03811660009081526006602052604090205460ff1615610b3457604051630ae9c7ed60e01b815260040160405180910390fd5b6001600160a01b0381166000818152600660205260408120805460ff1916600190811790915560058054918201815582527f036b6384b5eca791c62761152d0c79bb0604c104a5fb6f4eb0703f3154bb3db00180546001600160a01b031916909217909155610ba281610c22565b6001600160a01b03808416600081815260026020908152604080832086905560038252808320869055600482528083208690556007825280832083549095168352939052828120805460ff191660011790559151929350917f041109cfe10cfa549abb66b986d0a294ecc6c9ad39000abcb9c2afd422c8bd649190a25050565b6000610c2f826008610ca0565b92915050565b600082610c4957610c466000610c22565b92505b81610c5b57610c586000610c22565b91505b610c6783836000610d52565b9392505050565b600082610c8257610c7f6000610c22565b92505b81610c9457610c916000610c22565b91505b610c6783836000610e3a565b6000807fed8d60e34876f751cc8b014c560745351147d9de11b9347c854e881b128ea6006001810154604051631ce2e8d760e31b8152600481018790526001600160f81b031960f887901b1660248201529192506001600160a01b03169063e71746b8906044016020604051808303816000875af1158015610d26573d6000803e3d6000fd5b505050506040513d601f19601f82011682018060405250810190610d4a9190610fe9565b949350505050565b6000808215610d665750600160f81b610d6a565b5060005b7fed8d60e34876f751cc8b014c560745351147d9de11b9347c854e881b128ea6015460405163f953e42760e01b815260048101879052602481018690526001600160f81b0319831660448201527fed8d60e34876f751cc8b014c560745351147d9de11b9347c854e881b128ea600916001600160a01b03169063f953e427906064015b6020604051808303816000875af1158015610e0c573d6000803e3d6000fd5b505050506040513d601f19601f82011682018060405250810190610e309190610fe9565b9695505050505050565b6000808215610e4e5750600160f81b610e52565b5060005b7fed8d60e34876f751cc8b014c560745351147d9de11b9347c854e881b128ea60154604051638c14cc2160e01b815260048101879052602481018690526001600160f81b0319831660448201527fed8d60e34876f751cc8b014c560745351147d9de11b9347c854e881b128ea600916001600160a01b031690638c14cc2190606401610ded565b80356001600160a01b0381168114610ef057600080fd5b919050565b600060208284031215610f0757600080fd5b610c6782610ed9565b60008060408385031215610f2357600080fd5b610f2c83610ed9565b946020939093013593505050565b600060208284031215610f4c57600080fd5b5035919050565b60008060408385031215610f6657600080fd5b610f6f83610ed9565b9150610f7d60208401610ed9565b90509250929050565b6020808252825182820181905260009190848201906040850190845b81811015610fc75783516001600160a01b031683529284019291840191600101610fa2565b50909695505050505050565b634e487b7160e01b600052603260045260246000fd5b600060208284031215610ffb57600080fd5b505191905056fea26469706673582212207ec8ba8542da6d4a605318509c800fb7585b52e7bfa8092bd782026d758c492b64736f6c63430008180033",
  "linkReferences": {},
  "deployedLinkReferences": {}
}