{
  "_format": "hh-sol-artifact-1",
  "contractName": "ConfidentialPayrollFHE",
  "sourceName": "contracts/ConfidentialPayrollFHE.sol",
  "abi": [
    {
      "inputs": [
        {
          "internalType": "bytes32",
          "name": "_orgId",
          "type": "bytes32"
        }
      ],
      "stateMutability": "nonpayable",
      "type": "constructor"
    },
    {
      "inputs": [],
      "name": "NotEmployee",
      "type": "error"
    },
    {
      "inputs": [],
      "name": "NotOwner",
      "type": "error"
    },
    {
      "anonymous": false,
      "inputs": [
        {
          "indexed": true,
          "internalType": "address",
          "name": "employee",
          "type": "address"
        }
      ],
      "name": "BonusDistributedEncrypted",
      "type": "event"
    },
    {
      "anonymous": false,
      "inputs": [
        {
          "indexed": true,
          "internalType": "address",
          "name": "employee",
          "type": "address"
        }
      ],
      "name": "EmployeeAdded",
      "type": "event"
    },
    {
      "anonymous": false,
      "inputs": [
        {
          "indexed": false,
          "internalType": "uint256",
          "name": "employeeCount",
          "type": "uint256"
        }
      ],
      "name": "PayrollProcessedEncrypted",
      "type": "event"
    },
    {
      "anonymous": false,
      "inputs": [
        {
          "indexed": true,
          "internalType": "address",
          "name": "employee",
          "type": "address"
        }
      ],
      "name": "SalarySetEncrypted",
      "type": "event"
    },
    {
      "inputs": [
        {
          "internalType": "address",
          "name": "employee",
          "type": "address"
        }
      ],
      "name": "addEmployee",
      "outputs": [],
      "stateMutability": "nonpayable",
      "type": "function"
    },
    {
      "inputs": [
        {
          "internalType": "uint256",
          "name": "index",
          "type": "uint256"
        }
      ],
      "name": "getEmployee",
      "outputs": [
        {
          "internalType": "address",
          "name": "",
          "type": "address"
        }
      ],
      "stateMutability": "view",
      "type": "function"
    },
    {
      "inputs": [],
      "name": "getEmployeeCount",
      "outputs": [
        {
          "internalType": "uint256",
          "name": "",
          "type": "uint256"
        }
      ],
      "stateMutability": "view",
      "type": "function"
    },
    {
      "inputs": [
        {
          "internalType": "address",
          "name": "employee",
          "type": "address"
        }
      ],
      "name": "getEncryptedBonus",
      "outputs": [
        {
          "internalType": "euint256",
          "name": "",
          "type": "uint256"
        }
      ],
      "stateMutability": "view",
      "type": "function"
    },
    {
      "inputs": [
        {
          "internalType": "address",
          "name": "employee",
          "type": "address"
        }
      ],
      "name": "getEncryptedSalary",
      "outputs": [
        {
          "internalType": "euint256",
          "name": "",
          "type": "uint256"
        }
      ],
      "stateMutability": "view",
      "type": "function"
    },
    {
      "inputs": [
        {
          "internalType": "address",
          "name": "",
          "type": "address"
        }
      ],
      "name": "isEmployee",
      "outputs": [
        {
          "internalType": "bool",
          "name": "",
          "type": "bool"
        }
      ],
      "stateMutability": "view",
      "type": "function"
    },
    {
      "inputs": [],
      "name": "orgId",
      "outputs": [
        {
          "internalType": "bytes32",
          "name": "",
          "type": "bytes32"
        }
      ],
      "stateMutability": "view",
      "type": "function"
    },
    {
      "inputs": [],
      "name": "owner",
      "outputs": [
        {
          "internalType": "address",
          "name": "",
          "type": "address"
        }
      ],
      "stateMutability": "view",
      "type": "function"
    },
    {
      "inputs": [],
      "name": "processPayrollEncrypted",
      "outputs": [
        {
          "internalType": "euint256",
          "name": "",
          "type": "uint256"
        }
      ],
      "stateMutability": "nonpayable",
      "type": "function"
    },
    {
      "inputs": [
        {
          "internalType": "address",
          "name": "employee",
          "type": "address"
        },
        {
          "internalType": "euint256",
          "name": "encryptedBonus",
          "type": "uint256"
        }
      ],
      "name": "setEncryptedBonus",
      "outputs": [],
      "stateMutability": "nonpayable",
      "type": "function"
    },
    {
      "inputs": [
        {
          "internalType": "address",
          "name": "employee",
          "type": "address"
        },
        {
          "internalType": "euint256",
          "name": "encryptedSalary",
          "type": "uint256"
        }
      ],
      "name": "setEncryptedSalary",
      "outputs": [],
      "stateMutability": "nonpayable",
      "type": "function"
    }
  ],
  "bytecode": "0x608060405234801561001057600080fd5b5060405161094b38038061094b83398101604081905261002f91610049565b600080546001600160a01b03191633179055600155610062565b60006020828403121561005b57600080fd5b5051919050565b6108da806100716000396000f3fe608060405234801561001057600080fd5b50600436106100a95760003560e01c8063b4f796a711610071578063b4f796a714610125578063bca9a5c514610138578063c18396741461014b578063c2a63e3b1461015e578063ea66543f14610166578063f3cb8c311461019957600080fd5b80631730bdfe146100ae5780632473debe146100ca5780635e0dc52b146100dd57806366a2e266146100e55780638da5cb5b146100fa575b600080fd5b6100b760015481565b6040519081526020015b60405180910390f35b6100b76100d8366004610817565b6101ac565b6100b7610201565b6100f86100f3366004610832565b6102e8565b005b60005461010d906001600160a01b031681565b6040516001600160a01b0390911681526020016100c1565b6100f8610133366004610832565b610391565b61010d61014636600461085c565b61043a565b6100b7610159366004610817565b6104b0565b6004546100b7565b610189610174366004610817565b60056020526000908152604090205460ff1681565b60405190151581526020016100c1565b6100f86101a7366004610817565b610505565b6001600160a01b03811660009081526005602052604081205460ff166101e557604051630ae9c7ed60e01b815260040160405180910390fd5b506001600160a01b031660009081526002602052604090205490565b600080546001600160a01b0316331461022d576040516330cd747160e01b815260040160405180910390fd5b6000610239600061062f565b905060005b6004548110156102ac5760006004828154811061025d5761025d610875565b60009182526020808320909101546001600160a01b0316808352600282526040808420546003909352909220549192506102a191859161029c91610642565b610642565b92505060010161023e565b506004546040519081527f2c0a633d66e2bdde781bec1df11a36b49effb983da762aabab7cc9bd6e441e8d9060200160405180910390a1905090565b6000546001600160a01b03163314610313576040516330cd747160e01b815260040160405180910390fd5b6001600160a01b03821660009081526005602052604090205460ff1661034c57604051630ae9c7ed60e01b815260040160405180910390fd5b6001600160a01b038216600081815260036020526040808220849055517f72597f4002a960bb02bb6e8e4478ca0cc7d59cf02a4c8b40ea048e2ae631a1dd9190a25050565b6000546001600160a01b031633146103bc576040516330cd747160e01b815260040160405180910390fd5b6001600160a01b03821660009081526005602052604090205460ff166103f557604051630ae9c7ed60e01b815260040160405180910390fd5b6001600160a01b038216600081815260026020526040808220849055517f5cec6b3553c970eb9466db32714576c01fd286c5a17208600221620b9d8c59bf9190a25050565b60045460009082106104825760405162461bcd60e51b815260206004820152600d60248201526c092dcecc2d8d2c840d2dcc8caf609b1b604482015260640160405180910390fd5b6004828154811061049557610495610875565b6000918252602090912001546001600160a01b031692915050565b6001600160a01b03811660009081526005602052604081205460ff166104e957604051630ae9c7ed60e01b815260040160405180910390fd5b506001600160a01b031660009081526003602052604090205490565b6000546001600160a01b03163314610530576040516330cd747160e01b815260040160405180910390fd5b6001600160a01b03811660009081526005602052604090205460ff161561056a57604051630ae9c7ed60e01b815260040160405180910390fd5b6001600160a01b0381166000818152600560205260408120805460ff1916600190811790915560048054918201815582527f8a35acfbc15ff81a39ae7d344fd709f28e8600b4aa8c65c6b64bfe7fe36bd19b0180546001600160a01b0319169092179091556105d88161062f565b6001600160a01b038316600081815260026020908152604080832085905560039091528082208490555192935090917f041109cfe10cfa549abb66b986d0a294ecc6c9ad39000abcb9c2afd422c8bd649190a25050565b600061063c82600861067b565b92915050565b60008261065657610653600061062f565b92505b8161066857610665600061062f565b91505b6106748383600061072d565b9392505050565b6000807fed8d60e34876f751cc8b014c560745351147d9de11b9347c854e881b128ea6006001810154604051631ce2e8d760e31b8152600481018790526001600160f81b031960f887901b1660248201529192506001600160a01b03169063e71746b8906044016020604051808303816000875af1158015610701573d6000803e3d6000fd5b505050506040513d601f19601f82011682018060405250810190610725919061088b565b949350505050565b60008082156107415750600160f81b610745565b5060005b60007fed8d60e34876f751cc8b014c560745351147d9de11b9347c854e881b128ea600600181015460405163f953e42760e01b815260048101899052602481018890526001600160f81b0319851660448201529192506001600160a01b03169063f953e427906064016020604051808303816000875af11580156107cd573d6000803e3d6000fd5b505050506040513d601f19601f820116820180604052508101906107f1919061088b565b9695505050505050565b80356001600160a01b038116811461081257600080fd5b919050565b60006020828403121561082957600080fd5b610674826107fb565b6000806040838503121561084557600080fd5b61084e836107fb565b946020939093013593505050565b60006020828403121561086e57600080fd5b5035919050565b634e487b7160e01b600052603260045260246000fd5b60006020828403121561089d57600080fd5b505191905056fea2646970667358221220695db31f052a694afc7e276c615e8b56dfb7aafdb05cde33a8ba42688d5b3f2664736f6c63430008180033",
  "linkReferences": {},
  "deployedLinkReferences": {}
}