{
  "_format": "hh-sol-artifact-1",
  "contractName": "ConfidentialPayrollFHE",
  "sourceName": "contracts/ConfidentialPayrollFHE.sol",
  "abi": [
    {
      "inputs": [
        {
          "internalType": "bytes32",
          "name": "_orgId",
          "type": "bytes32"
        }
      ],
      "stateMutability": "nonpayable",
      "type": "constructor"
    },
    {
      "inputs": [],
      "name": "NotAuthorized",
      "type": "error"
    },
    {
      "inputs": [],
      "name": "NotEmployee",
      "type": "error"
    },
    {
      "inputs": [],
      "name": "NotOwner",
      "type": "error"
    },
    {
      "inputs": [
        {
          "internalType": "bytes32",
          "name": "handle",
          "type": "bytes32"
        },
        {
          "internalType": "address",
          "name": "sender",
          "type": "address"
        }
      ],
      "name": "SenderNotAllowedToUseHandle",
      "type": "error"
    },
    {
      "anonymous": false,
      "inputs": [
        {
          "indexed": true,
          "internalType": "address",
          "name": "employee",
          "type": "address"
        },
        {
          "indexed": true,
          "internalType": "address",
          "name": "viewer",
          "type": "address"
        }
      ],
      "name": "AccessGranted",
      "type": "event"
    },
    {
      "anonymous": false,
      "inputs": [
        {
          "indexed": true,
          "internalType": "address",
          "name": "employee",
          "type": "address"
        },
        {
          "indexed": true,
          "internalType": "address",
          "name": "viewer",
          "type": "address"
        }
      ],
      "name": "AccessRevoked",
      "type": "event"
    },
    {
      "anonymous": false,
      "inputs": [
        {
          "indexed": true,
          "internalType": "address",
          "name": "employee",
          "type": "address"
        }
      ],
      "name": "BonusDistributedEncrypted",
      "type": "event"
    },
    {
      "anonymous": false,
      "inputs": [
        {
          "indexed": true,
          "internalType": "address",
          "name": "employee",
          "type": "address"
        }
      ],
      "name": "EmployeeAdded",
      "type": "event"
    },
    {
      "anonymous": false,
      "inputs": [
        {
          "indexed": true,
          "internalType": "address",
          "name": "employee",
          "type": "address"
        }
      ],
      "name": "EmployeeRemoved",
      "type": "event"
    },
    {
      "anonymous": false,
      "inputs": [
        {
          "indexed": false,
          "internalType": "uint256",
          "name": "employeeCount",
          "type": "uint256"
        }
      ],
      "name": "PayrollProcessedEncrypted",
      "type": "event"
    },
    {
      "anonymous": false,
      "inputs": [
        {
          "indexed": true,
          "internalType": "address",
          "name": "employee",
          "type": "address"
        }
      ],
      "name": "SalarySetEncrypted",
      "type": "event"
    },
    {
      "anonymous": false,
      "inputs": [
        {
          "indexed": true,
          "internalType": "address",
          "name": "employee",
          "type": "address"
        }
      ],
      "name": "SalaryWithdrawn",
      "type": "event"
    },
    {
      "inputs": [
        {
          "internalType": "address",
          "name": "employee",
          "type": "address"
        }
      ],
      "name": "addEmployee",
      "outputs": [],
      "stateMutability": "nonpayable",
      "type": "function"
    },
    {
      "inputs": [
        {
          "internalType": "address",
          "name": "employee",
          "type": "address"
        },
        {
          "internalType": "address",
          "name": "viewer",
          "type": "address"
        }
      ],
      "name": "canViewEmployeeData",
      "outputs": [
        {
          "internalType": "bool",
          "name": "",
          "type": "bool"
        }
      ],
      "stateMutability": "view",
      "type": "function"
    },
    {
      "inputs": [],
      "name": "getAllEmployees",
      "outputs": [
        {
          "internalType": "address[]",
          "name": "",
          "type": "address[]"
        }
      ],
      "stateMutability": "view",
      "type": "function"
    },
    {
      "inputs": [
        {
          "internalType": "uint256",
          "name": "index",
          "type": "uint256"
        }
      ],
      "name": "getEmployee",
      "outputs": [
        {
          "internalType": "address",
          "name": "",
          "type": "address"
        }
      ],
      "stateMutability": "view",
      "type": "function"
    },
    {
      "inputs": [],
      "name": "getEmployeeCount",
      "outputs": [
        {
          "internalType": "uint256",
          "name": "",
          "type": "uint256"
        }
      ],
      "stateMutability": "view",
      "type": "function"
    },
    {
      "inputs": [
        {
          "internalType": "address",
          "name": "employee",
          "type": "address"
        }
      ],
      "name": "getEncryptedBalance",
      "outputs": [
        {
          "internalType": "euint128",
          "name": "",
          "type": "bytes32"
        }
      ],
      "stateMutability": "view",
      "type": "function"
    },
    {
      "inputs": [
        {
          "internalType": "address",
          "name": "employee",
          "type": "address"
        }
      ],
      "name": "getEncryptedBonus",
      "outputs": [
        {
          "internalType": "euint128",
          "name": "",
          "type": "bytes32"
        }
      ],
      "stateMutability": "view",
      "type": "function"
    },
    {
      "inputs": [
        {
          "internalType": "address",
          "name": "employee",
          "type": "address"
        }
      ],
      "name": "getEncryptedSalary",
      "outputs": [
        {
          "internalType": "euint128",
          "name": "",
          "type": "bytes32"
        }
      ],
      "stateMutability": "view",
      "type": "function"
    },
    {
      "inputs": [
        {
          "internalType": "address",
          "name": "viewer",
          "type": "address"
        }
      ],
      "name": "grantAccess",
      "outputs": [],
      "stateMutability": "nonpayable",
      "type": "function"
    },
    {
      "inputs": [
        {
          "internalType": "address",
          "name": "",
          "type": "address"
        }
      ],
      "name": "isEmployee",
      "outputs": [
        {
          "internalType": "bool",
          "name": "",
          "type": "bool"
        }
      ],
      "stateMutability": "view",
      "type": "function"
    },
    {
      "inputs": [],
      "name": "orgId",
      "outputs": [
        {
          "internalType": "bytes32",
          "name": "",
          "type": "bytes32"
        }
      ],
      "stateMutability": "view",
      "type": "function"
    },
    {
      "inputs": [],
      "name": "owner",
      "outputs": [
        {
          "internalType": "address",
          "name": "",
          "type": "address"
        }
      ],
      "stateMutability": "view",
      "type": "function"
    },
    {
      "inputs": [],
      "name": "processPayrollEncrypted",
      "outputs": [
        {
          "internalType": "euint128",
          "name": "",
          "type": "bytes32"
        }
      ],
      "stateMutability": "nonpayable",
      "type": "function"
    },
    {
      "inputs": [
        {
          "internalType": "address",
          "name": "employee",
          "type": "address"
        }
      ],
      "name": "removeEmployee",
      "outputs": [],
      "stateMutability": "nonpayable",
      "type": "function"
    },
    {
      "inputs": [
        {
          "internalType": "address",
          "name": "viewer",
          "type": "address"
        }
      ],
      "name": "revokeAccess",
      "outputs": [],
      "stateMutability": "nonpayable",
      "type": "function"
    },
    {
      "inputs": [
        {
          "internalType": "address",
          "name": "employee",
          "type": "address"
        },
        {
          "internalType": "externalEuint64",
          "name": "encryptedBonus",
          "type": "bytes32"
        },
        {
          "internalType": "bytes",
          "name": "inputProof",
          "type": "bytes"
        }
      ],
      "name": "setEncryptedBonus",
      "outputs": [],
      "stateMutability": "nonpayable",
      "type": "function"
    },
    {
      "inputs": [
        {
          "internalType": "address",
          "name": "employee",
          "type": "address"
        },
        {
          "internalType": "externalEuint64",
          "name": "encryptedSalary",
          "type": "bytes32"
        },
        {
          "internalType": "bytes",
          "name": "inputProof",
          "type": "bytes"
        }
      ],
      "name": "setEncryptedSalary",
      "outputs": [],
      "stateMutability": "nonpayable",
      "type": "function"
    },
    {
      "inputs": [
        {
          "internalType": "externalEuint64",
          "name": "encryptedAmount",
          "type": "bytes32"
        },
        {
          "internalType": "bytes",
          "name": "inputProof",
          "type": "bytes"
        }
      ],
      "name": "withdrawSalary",
      "outputs": [],
      "stateMutability": "nonpayable",
      "type": "function"
    }
  ],
  "bytecode": "0x608060405234801561001057600080fd5b5060405161186538038061186583398101604081905261002f91610049565b600080546001600160a01b03191633179055600155610062565b60006020828403121561005b57600080fd5b5051919050565b6117f4806100716000396000f3fe608060405234801561001057600080fd5b50600436106101165760003560e01c8063bca9a5c5116100a2578063e03c012f11610071578063e03c012f1461021f578063e3366fed14610242578063e6324ba014610257578063ea66543f1461026a578063f3cb8c311461028d57600080fd5b8063bca9a5c5146101de578063c1839674146101f1578063c2a63e3b14610204578063d108177a1461020c57600080fd5b8063402dc4e4116100e9578063402dc4e4146101725780635e0dc52b1461018557806382e8d1921461018d57806385e68531146101a05780638da5cb5b146101b357600080fd5b80630ae5e7391461011b5780631730bdfe146101305780632176fbae1461014c5780632473debe1461015f575b600080fd5b61012e6101293660046114c9565b6102a0565b005b61013960015481565b6040519081526020015b60405180910390f35b61012e61015a36600461152d565b610329565b61013961016d3660046114c9565b61042a565b6101396101803660046114c9565b6104c3565b61013961055c565b61012e61019b366004611579565b6106a8565b61012e6101ae3660046114c9565b6107d2565b6000546101c6906001600160a01b031681565b6040516001600160a01b039091168152602001610143565b6101c66101ec3660046115d3565b610887565b6101396101ff3660046114c9565b6108da565b600554610139565b61012e61021a3660046114c9565b610973565b61023261022d3660046115ec565b610a61565b6040519015158152602001610143565b61024a610a91565b604051610143919061161f565b61012e610265366004611579565b610af3565b6102326102783660046114c9565b60066020526000908152604090205460ff1681565b61012e61029b3660046114c9565b610c1d565b3360009081526006602052604090205460ff166102d057604051630ae9c7ed60e01b815260040160405180910390fd5b3360008181526007602090815260408083206001600160a01b0386168085529252808320805460ff19166001179055519092917f9f520b3bfc56d06f7065d10b4683b3f57ac8895d5026cd176dee95ce1454cb8d91a350565b3360009081526006602052604090205460ff1661035957604051630ae9c7ed60e01b815260040160405180910390fd5b600061039b8484848080601f016020809104026020016040519081016040528093929190818152602001838380828437600092019190915250610d7092505050565b336000908152600460205260408120549192506103c0836103bb84610dde565b610dfd565b90506103e7826103e2836103d387610e36565b6103dd6000610e55565b610e74565b610ebf565b3360008181526004602052604080822093909355915190917f52e3ccb07a3b332eaabaf2072f55fd09302dc583c48b03063c958965dfdd101191a2505050505050565b6001600160a01b03811660009081526006602052604081205460ff1661046357604051630ae9c7ed60e01b815260040160405180910390fd5b6001600160a01b038216600090815260076020908152604080832033845290915290205460ff166104a75760405163ea8e4eb560e01b815260040160405180910390fd5b506001600160a01b031660009081526002602052604090205490565b6001600160a01b03811660009081526006602052604081205460ff166104fc57604051630ae9c7ed60e01b815260040160405180910390fd5b6001600160a01b038216600090815260076020908152604080832033845290915290205460ff166105405760405163ea8e4eb560e01b815260040160405180910390fd5b506001600160a01b031660009081526004602052604090205490565b600080546001600160a01b03163314610588576040516330cd747160e01b815260040160405180910390fd5b60006105946000610e55565b905060005b60055481101561066c576000600582815481106105b8576105b861166c565b60009182526020808320909101546001600160a01b03168083526002825260408084205460039093528320549093506105f19190610ef1565b6001600160a01b0383166000908152600460205260409020549091506106179082610ef1565b6001600160a01b03831660009081526004602052604090205561063a8482610ef1565b93506106466000610e55565b6001600160a01b0390921660009081526003602052604090209190915550600101610599565b506005546040519081527f2c0a633d66e2bdde781bec1df11a36b49effb983da762aabab7cc9bd6e441e8d9060200160405180910390a1905090565b6000546001600160a01b031633146106d3576040516330cd747160e01b815260040160405180910390fd5b6001600160a01b03841660009081526006602052604090205460ff1661070c57604051630ae9c7ed60e01b815260040160405180910390fd5b600061074e8484848080601f016020809104026020016040519081016040528093929190818152602001838380828437600092019190915250610d7092505050565b905061075a8186610f23565b5061076481610f48565b5061076e81610e36565b6001600160a01b038616600081815260036020908152604080832094909455600781528382209052828120805460ff19166001179055915190917f72597f4002a960bb02bb6e8e4478ca0cc7d59cf02a4c8b40ea048e2ae631a1dd91a25050505050565b3360009081526006602052604090205460ff1661080257604051630ae9c7ed60e01b815260040160405180910390fd5b6000546001600160a01b03908116908216036108315760405163ea8e4eb560e01b815260040160405180910390fd5b3360008181526007602090815260408083206001600160a01b0386168085529252808320805460ff19169055519092917f825c8be24eb0df19500f63e86c29e7d0d951e73056b889b891d85e40938d9b6e91a350565b60055460009082106108ac5760405163ea8e4eb560e01b815260040160405180910390fd5b600582815481106108bf576108bf61166c565b6000918252602090912001546001600160a01b031692915050565b6001600160a01b03811660009081526006602052604081205460ff1661091357604051630ae9c7ed60e01b815260040160405180910390fd5b6001600160a01b038216600090815260076020908152604080832033845290915290205460ff166109575760405163ea8e4eb560e01b815260040160405180910390fd5b506001600160a01b031660009081526003602052604090205490565b6000546001600160a01b0316331461099e576040516330cd747160e01b815260040160405180910390fd5b6001600160a01b03811660009081526006602052604090205460ff166109d757604051630ae9c7ed60e01b815260040160405180910390fd5b6001600160a01b0381166000908152600660205260408120805460ff19169055610a0081610e55565b6001600160a01b03831660008181526002602090815260408083208590556003825280832085905560049091528082208490555192935090917fabae6e64cb4315875c29d42347a312f5e9fce4ab564e9722b43dd78d0751135a9190a25050565b6001600160a01b0380831660009081526007602090815260408083209385168352929052205460ff165b92915050565b60606005805480602002602001604051908101604052809291908181526020018280548015610ae957602002820191906000526020600020905b81546001600160a01b03168152600190910190602001808311610acb575b5050505050905090565b6000546001600160a01b03163314610b1e576040516330cd747160e01b815260040160405180910390fd5b6001600160a01b03841660009081526006602052604090205460ff16610b5757604051630ae9c7ed60e01b815260040160405180910390fd5b6000610b998484848080601f016020809104026020016040519081016040528093929190818152602001838380828437600092019190915250610d7092505050565b9050610ba58186610f23565b50610baf81610f48565b50610bb981610e36565b6001600160a01b038616600081815260026020908152604080832094909455600781528382209052828120805460ff19166001179055915190917f5cec6b3553c970eb9466db32714576c01fd286c5a17208600221620b9d8c59bf91a25050505050565b6000546001600160a01b03163314610c48576040516330cd747160e01b815260040160405180910390fd5b6001600160a01b03811660009081526006602052604090205460ff1615610c8257604051630ae9c7ed60e01b815260040160405180910390fd5b6001600160a01b0381166000818152600660205260408120805460ff1916600190811790915560058054918201815582527f036b6384b5eca791c62761152d0c79bb0604c104a5fb6f4eb0703f3154bb3db00180546001600160a01b031916909217909155610cf081610e55565b6001600160a01b03808416600081815260026020908152604080832086905560038252808320869055600482528083208690556007825280832083549095168352939052828120805460ff191660011790559151929350917f041109cfe10cfa549abb66b986d0a294ecc6c9ad39000abcb9c2afd422c8bd649190a25050565b60008151600014610d8e57610d8783836005610f6a565b9050610a8b565b826000819003610daa57610da2600061106f565b915050610a8b565b610db48133611086565b610d8757604051630276b5d960e01b81526004810182905233602482015260440160405180910390fd5b600081610df257610def6000610e55565b91505b610a8b82600561110e565b600082610e1157610e0e600061106f565b92505b81610e2357610e20600061106f565b91505b610e2f838360006111a3565b9392505050565b600081610e4a57610e47600061106f565b91505b610a8b82600661110e565b6000610a8b826fffffffffffffffffffffffffffffffff166006611257565b600083610e8857610e8560006112a9565b93505b82610e9a57610e976000610e55565b92505b81610eac57610ea96000610e55565b91505b610eb78484846112c7565b949350505050565b600082610ed357610ed06000610e55565b92505b81610ee557610ee26000610e55565b91505b610e2f83836000611362565b600082610f0557610f026000610e55565b92505b81610f1757610f146000610e55565b91505b610e2f838360006113c9565b600082610f3757610f34600061106f565b92505b610f418383611430565b5090919050565b600081610f5c57610f59600061106f565b91505b610f668230611430565b5090565b60008051602061177f8339815191525460405163045fc19560e11b815260009160008051602061179f833981519152916001600160a01b03909116906308bf832a90610fc09088903390899089906004016116a4565b6020604051808303816000875af1158015610fdf573d6000803e3d6000fd5b505050506040513d601f19601f82011682018060405250810190611003919061170f565b8154604051630f8e573b60e21b8152600481018390523360248201529193506001600160a01b031690633e395cec90604401600060405180830381600087803b15801561104f57600080fd5b505af1158015611063573d6000803e3d6000fd5b50505050509392505050565b6000610a8b8267ffffffffffffffff166005611257565b60008060008051602061179f83398151915280546040516382027b6d60e01b8152600481018790526001600160a01b0386811660248301529293509116906382027b6d90604401602060405180830381865afa1580156110ea573d6000803e3d6000fd5b505050506040513d601f19601f82011682018060405250810190610eb79190611728565b60008051602061177f833981519152546040516307227b9160e21b815260009160008051602061179f833981519152916001600160a01b0390911690631c89ee4490611160908790879060040161174a565b6020604051808303816000875af115801561117f573d6000803e3d6000fd5b505050506040513d601f19601f82011682018060405250810190610eb7919061170f565b60008082156111b75750600160f81b6111bb565b5060005b60008051602061177f83398151915254604051631d44e90160e21b815260008051602061179f833981519152916001600160a01b031690637513a4049061120a9089908990879060040161175e565b6020604051808303816000875af1158015611229573d6000803e3d6000fd5b505050506040513d601f19601f8201168201806040525081019061124d919061170f565b9695505050505050565b60008051602061177f83398151915254604051639cd07acb60e01b815260009160008051602061179f833981519152916001600160a01b0390911690639cd07acb90611160908790879060040161174a565b6000610a8b826112ba5760006112bd565b60015b60ff166000611257565b60008060008051602061179f8339815191526001810154604051637702dcff60e01b81526004810188905260248101879052604481018690529192506001600160a01b031690637702dcff906064016020604051808303816000875af1158015611335573d6000803e3d6000fd5b505050506040513d601f19601f82011682018060405250810190611359919061170f565b95945050505050565b60008082156113765750600160f81b61137a565b5060005b60008051602061177f833981519152546040516303056db360e31b815260008051602061179f833981519152916001600160a01b03169063182b6d989061120a9089908990879060040161175e565b60008082156113dd5750600160f81b6113e1565b5060005b60008051602061177f8339815191525460405163022f65e760e31b815260008051602061179f833981519152916001600160a01b03169063117b2f389061120a9089908990879060040161175e565b600060008051602061179f8339815191528054604051635ca4b5b160e11b8152600481018690526001600160a01b03858116602483015292935091169063b9496b6290604401600060405180830381600087803b15801561149057600080fd5b505af11580156114a4573d6000803e3d6000fd5b50505050505050565b80356001600160a01b03811681146114c457600080fd5b919050565b6000602082840312156114db57600080fd5b610e2f826114ad565b60008083601f8401126114f657600080fd5b50813567ffffffffffffffff81111561150e57600080fd5b60208301915083602082850101111561152657600080fd5b9250929050565b60008060006040848603121561154257600080fd5b83359250602084013567ffffffffffffffff81111561156057600080fd5b61156c868287016114e4565b9497909650939450505050565b6000806000806060858703121561158f57600080fd5b611598856114ad565b935060208501359250604085013567ffffffffffffffff8111156115bb57600080fd5b6115c7878288016114e4565b95989497509550505050565b6000602082840312156115e557600080fd5b5035919050565b600080604083850312156115ff57600080fd5b611608836114ad565b9150611616602084016114ad565b90509250929050565b6020808252825182820181905260009190848201906040850190845b818110156116605783516001600160a01b03168352928401929184019160010161163b565b50909695505050505050565b634e487b7160e01b600052603260045260246000fd5b605481106116a057634e487b7160e01b600052602160045260246000fd5b9052565b8481526000602060018060a01b038616602084015260806040840152845180608085015260005b818110156116e75786810183015185820160a0015282016116cb565b50600060a0828601015260a0601f19601f830116850101925050506113596060830184611682565b60006020828403121561172157600080fd5b5051919050565b60006020828403121561173a57600080fd5b81518015158114610e2f57600080fd5b82815260408101610e2f6020830184611682565b92835260208301919091526001600160f81b03191660408201526060019056fe9e7b61f58c47dc699ac88507c4f5bb9f121c03808c5676a8078fe583e46497019e7b61f58c47dc699ac88507c4f5bb9f121c03808c5676a8078fe583e4649700a2646970667358221220726d68897356ad4cb34d37c624ad999f9457c1253339792b01899cc53e2d7cb764736f6c63430008180033",
  "linkReferences": {},
  "deployedLinkReferences": {}
}