{
  "_format": "hh-sol-artifact-1",
  "contractName": "ConfidentialPayroll",
  "sourceName": "contracts/ConfidentialPayroll.sol",
  "abi": [
    {
      "inputs": [],
      "stateMutability": "nonpayable",
      "type": "constructor"
    },
    {
      "inputs": [],
      "name": "AlreadyEmployee",
      "type": "error"
    },
    {
      "inputs": [],
      "name": "InsufficientFunds",
      "type": "error"
    },
    {
      "inputs": [],
      "name": "NotEmployee",
      "type": "error"
    },
    {
      "inputs": [],
      "name": "NotOwner",
      "type": "error"
    },
    {
      "inputs": [
        {
          "internalType": "bytes32",
          "name": "handle",
          "type": "bytes32"
        },
        {
          "internalType": "address",
          "name": "sender",
          "type": "address"
        }
      ],
      "name": "SenderNotAllowedToUseHandle",
      "type": "error"
    },
    {
      "inputs": [],
      "name": "ZamaProtocolUnsupported",
      "type": "error"
    },
    {
      "anonymous": false,
      "inputs": [
        {
          "indexed": true,
          "internalType": "address",
          "name": "employee",
          "type": "address"
        }
      ],
      "name": "BonusSet",
      "type": "event"
    },
    {
      "anonymous": false,
      "inputs": [
        {
          "indexed": true,
          "internalType": "address",
          "name": "employee",
          "type": "address"
        }
      ],
      "name": "EmployeeAdded",
      "type": "event"
    },
    {
      "anonymous": false,
      "inputs": [
        {
          "indexed": true,
          "internalType": "address",
          "name": "employee",
          "type": "address"
        }
      ],
      "name": "EmployeeRemoved",
      "type": "event"
    },
    {
      "anonymous": false,
      "inputs": [
        {
          "indexed": true,
          "internalType": "address",
          "name": "sender",
          "type": "address"
        },
        {
          "indexed": false,
          "internalType": "uint256",
          "name": "amount",
          "type": "uint256"
        }
      ],
      "name": "FundsDeposited",
      "type": "event"
    },
    {
      "anonymous": false,
      "inputs": [
        {
          "indexed": false,
          "internalType": "uint256",
          "name": "employeeCount",
          "type": "uint256"
        }
      ],
      "name": "PayrollProcessed",
      "type": "event"
    },
    {
      "anonymous": false,
      "inputs": [
        {
          "indexed": true,
          "internalType": "address",
          "name": "employee",
          "type": "address"
        }
      ],
      "name": "SalarySet",
      "type": "event"
    },
    {
      "anonymous": false,
      "inputs": [
        {
          "indexed": true,
          "internalType": "address",
          "name": "employee",
          "type": "address"
        },
        {
          "indexed": false,
          "internalType": "uint256",
          "name": "amount",
          "type": "uint256"
        }
      ],
      "name": "Withdrawn",
      "type": "event"
    },
    {
      "inputs": [
        {
          "internalType": "address",
          "name": "employee",
          "type": "address"
        }
      ],
      "name": "addEmployee",
      "outputs": [],
      "stateMutability": "nonpayable",
      "type": "function"
    },
    {
      "inputs": [],
      "name": "confidentialProtocolId",
      "outputs": [
        {
          "internalType": "uint256",
          "name": "",
          "type": "uint256"
        }
      ],
      "stateMutability": "view",
      "type": "function"
    },
    {
      "inputs": [],
      "name": "depositFunds",
      "outputs": [],
      "stateMutability": "payable",
      "type": "function"
    },
    {
      "inputs": [],
      "name": "fundPool",
      "outputs": [
        {
          "internalType": "uint256",
          "name": "",
          "type": "uint256"
        }
      ],
      "stateMutability": "view",
      "type": "function"
    },
    {
      "inputs": [],
      "name": "getAllEmployees",
      "outputs": [
        {
          "internalType": "address[]",
          "name": "",
          "type": "address[]"
        }
      ],
      "stateMutability": "view",
      "type": "function"
    },
    {
      "inputs": [
        {
          "internalType": "address",
          "name": "employee",
          "type": "address"
        }
      ],
      "name": "getBalance",
      "outputs": [
        {
          "internalType": "euint64",
          "name": "",
          "type": "bytes32"
        }
      ],
      "stateMutability": "view",
      "type": "function"
    },
    {
      "inputs": [
        {
          "internalType": "address",
          "name": "employee",
          "type": "address"
        }
      ],
      "name": "getBonus",
      "outputs": [
        {
          "internalType": "euint64",
          "name": "",
          "type": "bytes32"
        }
      ],
      "stateMutability": "view",
      "type": "function"
    },
    {
      "inputs": [
        {
          "internalType": "uint256",
          "name": "index",
          "type": "uint256"
        }
      ],
      "name": "getEmployeeAt",
      "outputs": [
        {
          "internalType": "address",
          "name": "",
          "type": "address"
        }
      ],
      "stateMutability": "view",
      "type": "function"
    },
    {
      "inputs": [],
      "name": "getEmployeeCount",
      "outputs": [
        {
          "internalType": "uint256",
          "name": "",
          "type": "uint256"
        }
      ],
      "stateMutability": "view",
      "type": "function"
    },
    {
      "inputs": [
        {
          "internalType": "address",
          "name": "employee",
          "type": "address"
        }
      ],
      "name": "getSalary",
      "outputs": [
        {
          "internalType": "euint64",
          "name": "",
          "type": "bytes32"
        }
      ],
      "stateMutability": "view",
      "type": "function"
    },
    {
      "inputs": [
        {
          "internalType": "address",
          "name": "",
          "type": "address"
        }
      ],
      "name": "isEmployee",
      "outputs": [
        {
          "internalType": "bool",
          "name": "",
          "type": "bool"
        }
      ],
      "stateMutability": "view",
      "type": "function"
    },
    {
      "inputs": [],
      "name": "owner",
      "outputs": [
        {
          "internalType": "address",
          "name": "",
          "type": "address"
        }
      ],
      "stateMutability": "view",
      "type": "function"
    },
    {
      "inputs": [],
      "name": "processPayroll",
      "outputs": [],
      "stateMutability": "nonpayable",
      "type": "function"
    },
    {
      "inputs": [
        {
          "internalType": "address",
          "name": "employee",
          "type": "address"
        }
      ],
      "name": "removeEmployee",
      "outputs": [],
      "stateMutability": "nonpayable",
      "type": "function"
    },
    {
      "inputs": [
        {
          "internalType": "address",
          "name": "employee",
          "type": "address"
        },
        {
          "internalType": "externalEuint64",
          "name": "encBonus",
          "type": "bytes32"
        },
        {
          "internalType": "bytes",
          "name": "inputProof",
          "type": "bytes"
        }
      ],
      "name": "setBonus",
      "outputs": [],
      "stateMutability": "nonpayable",
      "type": "function"
    },
    {
      "inputs": [
        {
          "internalType": "address",
          "name": "employee",
          "type": "address"
        },
        {
          "internalType": "externalEuint64",
          "name": "encSalary",
          "type": "bytes32"
        },
        {
          "internalType": "bytes",
          "name": "inputProof",
          "type": "bytes"
        }
      ],
      "name": "setSalary",
      "outputs": [],
      "stateMutability": "nonpayable",
      "type": "function"
    },
    {
      "inputs": [],
      "name": "totalCompensation",
      "outputs": [
        {
          "internalType": "euint64",
          "name": "",
          "type": "bytes32"
        }
      ],
      "stateMutability": "view",
      "type": "function"
    },
    {
      "inputs": [],
      "name": "updateTotalCompensation",
      "outputs": [],
      "stateMutability": "nonpayable",
      "type": "function"
    },
    {
      "inputs": [
        {
          "internalType": "uint64",
          "name": "amountCents",
          "type": "uint64"
        },
        {
          "internalType": "uint64",
          "name": "ethAmount",
          "type": "uint64"
        }
      ],
      "name": "withdraw",
      "outputs": [],
      "stateMutability": "nonpayable",
      "type": "function"
    }
  ],
  "bytecode": "0x608060405234801561001057600080fd5b506100c561001c6100dc565b80517f9e7b61f58c47dc699ac88507c4f5bb9f121c03808c5676a8078fe583e464970080546001600160a01b03199081166001600160a01b039384161790915560208301517f9e7b61f58c47dc699ac88507c4f5bb9f121c03808c5676a8078fe583e46497018054831691841691909117905560408301517f9e7b61f58c47dc699ac88507c4f5bb9f121c03808c5676a8078fe583e46497028054909216921691909117905550565b600080546001600160a01b0319163317905561028f565b6040805160608101825260008082526020820181905291810191909152466001036101775750604080516060808201835260008083526020808401829052928401528251908101835273ca2e8f1f656cd25c01f05d0b243ab1ecd4a8ffb6815273d82385dada1ae3e969447f20a3164f6213100e75918101919091527377627828a55156b04ac0dc0eb30467f1a552bb039181019190915290565b4662aa36a7036101f75750604080516060808201835260008083526020808401829052928401528251908101835273f0ffdc93b7e186bc2f8cb3daa75d86d1930a433d81527392c920834ec8941d2c77d188936e1f7a6f49c1279181019190915273be0e383937d564d7ff0bc3b46c51f0bf8d5c311a9181019190915290565b46617a6903610276575060408051606080820183526000808352602080840182905292840152825190810183527350157cffd6bbfa2dece204a89ec419c23ef5755d815273e3a9105a3a932253a70f126eb1e3b589c643dd249181019190915273901f8942346f7ab3a01f6d7613119bca447bb0309181019190915290565b6040516373cac13b60e01b815260040160405180910390fd5b6119ae8061029e6000396000f3fe6080604052600436106101145760003560e01c8063c2a63e3b116100a0578063e896283711610064578063e8962837146102ba578063ea66543f146102da578063f3cb8c311461031a578063f3e9bc281461033a578063f8b2cb4f1461035057600080fd5b8063c2a63e3b1461023b578063cafb670614610250578063d108177a14610270578063e2c41dbc14610290578063e3366fed1461029857600080fd5b80638927b030116100e75780638927b030146101a45780638da5cb5b146101b957806397c69462146101f15780639e89c5f314610206578063a4c1fd081461022657600080fd5b80633a740a63146101195780635395b9931461014c57806370f37d271461016e57806384e70d9e14610184575b600080fd5b34801561012557600080fd5b50610139610134366004611681565b610370565b6040519081526020015b60405180910390f35b34801561015857600080fd5b5061016c61016736600461169c565b6103c5565b005b34801561017a57600080fd5b5061013960075481565b34801561019057600080fd5b5061013961019f366004611681565b6104e2565b3480156101b057600080fd5b50610139610537565b3480156101c557600080fd5b506000546101d9906001600160a01b031681565b6040516001600160a01b039091168152602001610143565b3480156101fd57600080fd5b5061016c610546565b34801561021257600080fd5b5061016c61022136600461173b565b610660565b34801561023257600080fd5b5061016c610853565b34801561024757600080fd5b50600454610139565b34801561025c57600080fd5b506101d961026b36600461176e565b6109be565b34801561027c57600080fd5b5061016c61028b366004611681565b6109ee565b61016c610bb6565b3480156102a457600080fd5b506102ad610c2f565b6040516101439190611787565b3480156102c657600080fd5b5061016c6102d536600461169c565b610c91565b3480156102e657600080fd5b5061030a6102f5366004611681565b60056020526000908152604090205460ff1681565b6040519015158152602001610143565b34801561032657600080fd5b5061016c610335366004611681565b610dae565b34801561034657600080fd5b5061013960085481565b34801561035c57600080fd5b5061013961036b366004611681565b610f43565b6001600160a01b03811660009081526005602052604081205460ff166103a957604051630ae9c7ed60e01b815260040160405180910390fd5b506001600160a01b031660009081526002602052604090205490565b6000546001600160a01b031633146103f0576040516330cd747160e01b815260040160405180910390fd5b6001600160a01b03841660009081526005602052604090205460ff1661042957604051630ae9c7ed60e01b815260040160405180910390fd5b600061046b8484848080601f016020809104026020016040519081016040528093929190818152602001838380828437600092019190915250610f9892505050565b90506104768161100b565b5060005461048e9082906001600160a01b031661102d565b50610499818661102d565b506001600160a01b038516600081815260026020526040808220849055517fbd51110275507680c3ef5e2c8041a91c0955037e36e4ad8eb71f8548209a80b89190a25050505050565b6001600160a01b03811660009081526005602052604081205460ff1661051b57604051630ae9c7ed60e01b815260040160405180910390fd5b506001600160a01b031660009081526001602052604090205490565b6000610541611052565b905090565b6000546001600160a01b03163314610571576040516330cd747160e01b815260040160405180910390fd5b600061057d6000611089565b6000549091506105979082906001600160a01b031661102d565b5060005b600454811015610650576000600482815481106105ba576105ba6117d4565b60009182526020808320909101546001600160a01b031680835260019091526040909120549091506105ed9084906110a0565b6000549093506106079084906001600160a01b031661102d565b506001600160a01b03811660009081526002602052604090205461062c9084906110a0565b6000549093506106469084906001600160a01b031661102d565b505060010161059b565b5061065a8161100b565b50600855565b3360009081526005602052604090205460ff1661069057604051630ae9c7ed60e01b815260040160405180910390fd5b600061069b83611089565b336000908152600360205260408120549192506106b883836110d2565b905060006106d082856106cb6000611089565b611104565b905060006106de8483611151565b90506106e98161100b565b506000546107019082906001600160a01b031661102d565b5061070c813361102d565b5033600090815260036020526040902081905560075467ffffffffffffffff8716111561074c5760405163356680b760e01b815260040160405180910390fd5b8567ffffffffffffffff16600760008282546107689190611800565b9091555050604051600090339067ffffffffffffffff8916908381818185875af1925050503d80600081146107b9576040519150601f19603f3d011682016040523d82523d6000602084013e6107be565b606091505b505090508061080a5760405162461bcd60e51b8152602060048201526013602482015272115512081d1c985b9cd9995c8819985a5b1959606a1b60448201526064015b60405180910390fd5b60405167ffffffffffffffff8816815233907f7084f5476618d8e60b11ef0d7d3f06914655adb8793e28ff7f018d4c76d505d59060200160405180910390a25050505050505050565b6000546001600160a01b0316331461087e576040516330cd747160e01b815260040160405180910390fd5b60045460005b81811015610987576000600482815481106108a1576108a16117d4565b60009182526020808320909101546001600160a01b03168083526001825260408084205460029093528320549093506108da91906110a0565b6001600160a01b0383166000908152600360205260408120549192509061090190836110a0565b905061090c8161100b565b506000546109249082906001600160a01b031661102d565b5061092f818461102d565b506001600160a01b038316600090815260036020526040812082905561095481611089565b905061095f8161100b565b506001600160a01b039093166000908152600260205260409020929092555050600101610884565b506040518181527f61ae2d8764a242523a9d6c1911ba021669b4b6056a6d4061a0cbeae751e615fe9060200160405180910390a150565b6000600482815481106109d3576109d36117d4565b6000918252602090912001546001600160a01b031692915050565b6000546001600160a01b03163314610a19576040516330cd747160e01b815260040160405180910390fd5b6001600160a01b03811660009081526005602052604090205460ff16610a5257604051630ae9c7ed60e01b815260040160405180910390fd5b6001600160a01b0381166000908152600560209081526040808320805460ff191690556006909152812054610a8990600190611800565b600454909150600090610a9e90600190611800565b9050808214610b3a57600060048281548110610abc57610abc6117d4565b600091825260209091200154600480546001600160a01b039092169250829185908110610aeb57610aeb6117d4565b600091825260209091200180546001600160a01b0319166001600160a01b0392909216919091179055610b1f836001611813565b6001600160a01b039091166000908152600660205260409020555b6004805480610b4b57610b4b611826565b60008281526020808220830160001990810180546001600160a01b03191690559092019092556001600160a01b038516808352600690915260408083208390555190917fabae6e64cb4315875c29d42347a312f5e9fce4ab564e9722b43dd78d0751135a91a2505050565b6000546001600160a01b03163314610be1576040516330cd747160e01b815260040160405180910390fd5b3460076000828254610bf39190611813565b909155505060405134815233907f543ba50a5eec5e6178218e364b1d0f396157b3c8fa278522c2cb7fd99407d4749060200160405180910390a2565b60606004805480602002602001604051908101604052809291908181526020018280548015610c8757602002820191906000526020600020905b81546001600160a01b03168152600190910190602001808311610c69575b5050505050905090565b6000546001600160a01b03163314610cbc576040516330cd747160e01b815260040160405180910390fd5b6001600160a01b03841660009081526005602052604090205460ff16610cf557604051630ae9c7ed60e01b815260040160405180910390fd5b6000610d378484848080601f016020809104026020016040519081016040528093929190818152602001838380828437600092019190915250610f9892505050565b9050610d428161100b565b50600054610d5a9082906001600160a01b031661102d565b50610d65818661102d565b506001600160a01b038516600081815260016020526040808220849055517fcbe1ac3a739a6056ceab8ccc2fdf1eb8bc778acad285b3dd81099b438cd8e9079190a25050505050565b6000546001600160a01b03163314610dd9576040516330cd747160e01b815260040160405180910390fd5b6001600160a01b03811660009081526005602052604090205460ff1615610e1357604051630b53684b60e21b815260040160405180910390fd5b6001600160a01b0381166000908152600560205260409020805460ff19166001908117909155600454610e4591611813565b6001600160a01b038216600081815260066020526040812092909255600480546001810182559083527f8a35acfbc15ff81a39ae7d344fd709f28e8600b4aa8c65c6b64bfe7fe36bd19b0180546001600160a01b0319169091179055610eaa81611089565b6001600160a01b038316600090815260016020908152604080832084905560028252808320849055600390915290208190559050610ee78161100b565b50600054610eff9082906001600160a01b031661102d565b50610f0a818361102d565b506040516001600160a01b038316907f041109cfe10cfa549abb66b986d0a294ecc6c9ad39000abcb9c2afd422c8bd6490600090a25050565b6001600160a01b03811660009081526005602052604081205460ff16610f7c57604051630ae9c7ed60e01b815260040160405180910390fd5b506001600160a01b031660009081526003602052604090205490565b60008151600014610fb657610faf83836005611183565b9050611005565b826000819003610fd257610fca6000611089565b915050611005565b610fdc8133611288565b61100257604051630276b5d960e01b815260048101829052336024820152604401610801565b90505b92915050565b60008161101f5761101c6000611089565b91505b6110298230611318565b5090565b6000826110415761103e6000611089565b92505b61104b8383611318565b5090919050565b6000466001036110625750600190565b4662aa36a703611073575061271190565b46617a6903611083575060001990565b50600090565b60006110058267ffffffffffffffff166005611395565b6000826110b4576110b16000611089565b92505b816110c6576110c36000611089565b91505b6110028383600061142a565b6000826110e6576110e36000611089565b92505b816110f8576110f56000611089565b91505b611002838360006114de565b600083611118576111156000611545565b93505b8261112a576111276000611089565b92505b8161113c576111396000611089565b91505b611147848484611563565b90505b9392505050565b600082611165576111626000611089565b92505b81611177576111746000611089565b91505b611002838360006115fe565b6000805160206119398339815191525460405163045fc19560e11b8152600091600080516020611959833981519152916001600160a01b03909116906308bf832a906111d990889033908990899060040161185e565b6020604051808303816000875af11580156111f8573d6000803e3d6000fd5b505050506040513d601f19601f8201168201806040525081019061121c91906118c9565b8154604051630f8e573b60e21b8152600481018390523360248201529193506001600160a01b031690633e395cec90604401600060405180830381600087803b15801561126857600080fd5b505af115801561127c573d6000803e3d6000fd5b50505050509392505050565b60008060008051602061195983398151915280546040516382027b6d60e01b8152600481018790526001600160a01b0386811660248301529293509116906382027b6d90604401602060405180830381865afa1580156112ec573d6000803e3d6000fd5b505050506040513d601f19601f8201168201806040525081019061131091906118e2565b949350505050565b60006000805160206119598339815191528054604051635ca4b5b160e11b8152600481018690526001600160a01b03858116602483015292935091169063b9496b6290604401600060405180830381600087803b15801561137857600080fd5b505af115801561138c573d6000803e3d6000fd5b50505050505050565b60008051602061193983398151915254604051639cd07acb60e01b8152600091600080516020611959833981519152916001600160a01b0390911690639cd07acb906113e79087908790600401611904565b6020604051808303816000875af1158015611406573d6000803e3d6000fd5b505050506040513d601f19601f8201168201806040525081019061131091906118c9565b600080821561143e5750600160f81b611442565b5060005b6000805160206119398339815191525460405163022f65e760e31b8152600080516020611959833981519152916001600160a01b03169063117b2f389061149190899089908790600401611918565b6020604051808303816000875af11580156114b0573d6000803e3d6000fd5b505050506040513d601f19601f820116820180604052508101906114d491906118c9565b9695505050505050565b60008082156114f25750600160f81b6114f6565b5060005b60008051602061193983398151915254604051631d44e90160e21b8152600080516020611959833981519152916001600160a01b031690637513a4049061149190899089908790600401611918565b600061100582611556576000611559565b60015b60ff166000611395565b6000806000805160206119598339815191526001810154604051637702dcff60e01b81526004810188905260248101879052604481018690529192506001600160a01b031690637702dcff906064016020604051808303816000875af11580156115d1573d6000803e3d6000fd5b505050506040513d601f19601f820116820180604052508101906115f591906118c9565b95945050505050565b60008082156116125750600160f81b611616565b5060005b600080516020611939833981519152546040516303056db360e31b8152600080516020611959833981519152916001600160a01b03169063182b6d989061149190899089908790600401611918565b80356001600160a01b038116811461167c57600080fd5b919050565b60006020828403121561169357600080fd5b61100282611665565b600080600080606085870312156116b257600080fd5b6116bb85611665565b935060208501359250604085013567ffffffffffffffff808211156116df57600080fd5b818701915087601f8301126116f357600080fd5b81358181111561170257600080fd5b88602082850101111561171457600080fd5b95989497505060200194505050565b803567ffffffffffffffff8116811461167c57600080fd5b6000806040838503121561174e57600080fd5b61175783611723565b915061176560208401611723565b90509250929050565b60006020828403121561178057600080fd5b5035919050565b6020808252825182820181905260009190848201906040850190845b818110156117c85783516001600160a01b0316835292840192918401916001016117a3565b50909695505050505050565b634e487b7160e01b600052603260045260246000fd5b634e487b7160e01b600052601160045260246000fd5b81810381811115611005576110056117ea565b80820180821115611005576110056117ea565b634e487b7160e01b600052603160045260246000fd5b6054811061185a57634e487b7160e01b600052602160045260246000fd5b9052565b8481526000602060018060a01b038616602084015260806040840152845180608085015260005b818110156118a15786810183015185820160a001528201611885565b50600060a0828601015260a0601f19601f830116850101925050506115f5606083018461183c565b6000602082840312156118db57600080fd5b5051919050565b6000602082840312156118f457600080fd5b8151801515811461114a57600080fd5b8281526040810161114a602083018461183c565b92835260208301919091526001600160f81b03191660408201526060019056fe9e7b61f58c47dc699ac88507c4f5bb9f121c03808c5676a8078fe583e46497019e7b61f58c47dc699ac88507c4f5bb9f121c03808c5676a8078fe583e4649700a2646970667358221220cf81dd694f8a5f896de995187bcef91d0f84af2b20805c8d5b1132146faf9d0464736f6c63430008180033",
  "linkReferences": {},
  "deployedLinkReferences": {}
}