{
  "_format": "hh-sol-artifact-1",
  "contractName": "ConfidentialPayrollFHE",
  "sourceName": "contracts/ConfidentialPayrollFHE.sol",
  "abi": [
    {
      "inputs": [
        {
          "internalType": "bytes32",
          "name": "_orgId",
          "type": "bytes32"
        }
      ],
      "stateMutability": "nonpayable",
      "type": "constructor"
    },
    {
      "inputs": [],
      "name": "AlreadyEmployee",
      "type": "error"
    },
    {
      "inputs": [],
      "name": "InsufficientFunds",
      "type": "error"
    },
    {
      "inputs": [],
      "name": "NotAuthorized",
      "type": "error"
    },
    {
      "inputs": [],
      "name": "NotEmployee",
      "type": "error"
    },
    {
      "inputs": [],
      "name": "NotOwner",
      "type": "error"
    },
    {
      "inputs": [
        {
          "internalType": "bytes32",
          "name": "handle",
          "type": "bytes32"
        },
        {
          "internalType": "address",
          "name": "sender",
          "type": "address"
        }
      ],
      "name": "SenderNotAllowedToUseHandle",
      "type": "error"
    },
    {
      "inputs": [],
      "name": "ZamaProtocolUnsupported",
      "type": "error"
    },
    {
      "anonymous": false,
      "inputs": [
        {
          "indexed": true,
          "internalType": "address",
          "name": "employee",
          "type": "address"
        },
        {
          "indexed": true,
          "internalType": "address",
          "name": "viewer",
          "type": "address"
        }
      ],
      "name": "AccessGranted",
      "type": "event"
    },
    {
      "anonymous": false,
      "inputs": [
        {
          "indexed": true,
          "internalType": "address",
          "name": "employee",
          "type": "address"
        },
        {
          "indexed": true,
          "internalType": "address",
          "name": "viewer",
          "type": "address"
        }
      ],
      "name": "AccessRevoked",
      "type": "event"
    },
    {
      "anonymous": false,
      "inputs": [
        {
          "indexed": true,
          "internalType": "address",
          "name": "employee",
          "type": "address"
        }
      ],
      "name": "BonusSet",
      "type": "event"
    },
    {
      "anonymous": false,
      "inputs": [
        {
          "indexed": true,
          "internalType": "address",
          "name": "employee",
          "type": "address"
        }
      ],
      "name": "EmployeeAdded",
      "type": "event"
    },
    {
      "anonymous": false,
      "inputs": [
        {
          "indexed": true,
          "internalType": "address",
          "name": "employee",
          "type": "address"
        }
      ],
      "name": "EmployeeRemoved",
      "type": "event"
    },
    {
      "anonymous": false,
      "inputs": [
        {
          "indexed": true,
          "internalType": "address",
          "name": "sender",
          "type": "address"
        },
        {
          "indexed": false,
          "internalType": "uint256",
          "name": "amount",
          "type": "uint256"
        }
      ],
      "name": "FundsDeposited",
      "type": "event"
    },
    {
      "anonymous": false,
      "inputs": [
        {
          "indexed": false,
          "internalType": "uint256",
          "name": "employeeCount",
          "type": "uint256"
        }
      ],
      "name": "PayrollProcessed",
      "type": "event"
    },
    {
      "anonymous": false,
      "inputs": [
        {
          "indexed": true,
          "internalType": "address",
          "name": "employee",
          "type": "address"
        }
      ],
      "name": "SalarySet",
      "type": "event"
    },
    {
      "anonymous": false,
      "inputs": [
        {
          "indexed": true,
          "internalType": "address",
          "name": "employee",
          "type": "address"
        },
        {
          "indexed": false,
          "internalType": "uint256",
          "name": "amount",
          "type": "uint256"
        }
      ],
      "name": "Withdrawn",
      "type": "event"
    },
    {
      "inputs": [
        {
          "internalType": "address",
          "name": "employee",
          "type": "address"
        }
      ],
      "name": "addEmployee",
      "outputs": [],
      "stateMutability": "nonpayable",
      "type": "function"
    },
    {
      "inputs": [
        {
          "internalType": "address",
          "name": "employee",
          "type": "address"
        },
        {
          "internalType": "address",
          "name": "viewer",
          "type": "address"
        }
      ],
      "name": "canViewEmployeeData",
      "outputs": [
        {
          "internalType": "bool",
          "name": "",
          "type": "bool"
        }
      ],
      "stateMutability": "view",
      "type": "function"
    },
    {
      "inputs": [],
      "name": "confidentialProtocolId",
      "outputs": [
        {
          "internalType": "uint256",
          "name": "",
          "type": "uint256"
        }
      ],
      "stateMutability": "view",
      "type": "function"
    },
    {
      "inputs": [],
      "name": "depositFunds",
      "outputs": [],
      "stateMutability": "payable",
      "type": "function"
    },
    {
      "inputs": [],
      "name": "fundPool",
      "outputs": [
        {
          "internalType": "uint256",
          "name": "",
          "type": "uint256"
        }
      ],
      "stateMutability": "view",
      "type": "function"
    },
    {
      "inputs": [],
      "name": "getAllEmployees",
      "outputs": [
        {
          "internalType": "address[]",
          "name": "",
          "type": "address[]"
        }
      ],
      "stateMutability": "view",
      "type": "function"
    },
    {
      "inputs": [
        {
          "internalType": "uint256",
          "name": "index",
          "type": "uint256"
        }
      ],
      "name": "getEmployee",
      "outputs": [
        {
          "internalType": "address",
          "name": "",
          "type": "address"
        }
      ],
      "stateMutability": "view",
      "type": "function"
    },
    {
      "inputs": [],
      "name": "getEmployeeCount",
      "outputs": [
        {
          "internalType": "uint256",
          "name": "",
          "type": "uint256"
        }
      ],
      "stateMutability": "view",
      "type": "function"
    },
    {
      "inputs": [
        {
          "internalType": "address",
          "name": "employee",
          "type": "address"
        }
      ],
      "name": "getEncryptedBalance",
      "outputs": [
        {
          "internalType": "euint64",
          "name": "",
          "type": "bytes32"
        }
      ],
      "stateMutability": "view",
      "type": "function"
    },
    {
      "inputs": [
        {
          "internalType": "address",
          "name": "employee",
          "type": "address"
        }
      ],
      "name": "getEncryptedBonus",
      "outputs": [
        {
          "internalType": "euint64",
          "name": "",
          "type": "bytes32"
        }
      ],
      "stateMutability": "view",
      "type": "function"
    },
    {
      "inputs": [
        {
          "internalType": "address",
          "name": "employee",
          "type": "address"
        }
      ],
      "name": "getEncryptedSalary",
      "outputs": [
        {
          "internalType": "euint64",
          "name": "",
          "type": "bytes32"
        }
      ],
      "stateMutability": "view",
      "type": "function"
    },
    {
      "inputs": [],
      "name": "getFundPool",
      "outputs": [
        {
          "internalType": "uint256",
          "name": "",
          "type": "uint256"
        }
      ],
      "stateMutability": "view",
      "type": "function"
    },
    {
      "inputs": [
        {
          "internalType": "address",
          "name": "viewer",
          "type": "address"
        }
      ],
      "name": "grantAccess",
      "outputs": [],
      "stateMutability": "nonpayable",
      "type": "function"
    },
    {
      "inputs": [
        {
          "internalType": "address",
          "name": "",
          "type": "address"
        }
      ],
      "name": "isEmployee",
      "outputs": [
        {
          "internalType": "bool",
          "name": "",
          "type": "bool"
        }
      ],
      "stateMutability": "view",
      "type": "function"
    },
    {
      "inputs": [],
      "name": "orgId",
      "outputs": [
        {
          "internalType": "bytes32",
          "name": "",
          "type": "bytes32"
        }
      ],
      "stateMutability": "view",
      "type": "function"
    },
    {
      "inputs": [],
      "name": "owner",
      "outputs": [
        {
          "internalType": "address",
          "name": "",
          "type": "address"
        }
      ],
      "stateMutability": "view",
      "type": "function"
    },
    {
      "inputs": [],
      "name": "processPayrollEncrypted",
      "outputs": [],
      "stateMutability": "nonpayable",
      "type": "function"
    },
    {
      "inputs": [
        {
          "internalType": "address",
          "name": "employee",
          "type": "address"
        }
      ],
      "name": "removeEmployee",
      "outputs": [],
      "stateMutability": "nonpayable",
      "type": "function"
    },
    {
      "inputs": [
        {
          "internalType": "address",
          "name": "viewer",
          "type": "address"
        }
      ],
      "name": "revokeAccess",
      "outputs": [],
      "stateMutability": "nonpayable",
      "type": "function"
    },
    {
      "inputs": [
        {
          "internalType": "address",
          "name": "employee",
          "type": "address"
        },
        {
          "internalType": "externalEuint64",
          "name": "encBonus",
          "type": "bytes32"
        },
        {
          "internalType": "bytes",
          "name": "inputProof",
          "type": "bytes"
        }
      ],
      "name": "setEncryptedBonus",
      "outputs": [],
      "stateMutability": "nonpayable",
      "type": "function"
    },
    {
      "inputs": [
        {
          "internalType": "address",
          "name": "employee",
          "type": "address"
        },
        {
          "internalType": "externalEuint64",
          "name": "encSalary",
          "type": "bytes32"
        },
        {
          "internalType": "bytes",
          "name": "inputProof",
          "type": "bytes"
        }
      ],
      "name": "setEncryptedSalary",
      "outputs": [],
      "stateMutability": "nonpayable",
      "type": "function"
    },
    {
      "inputs": [
        {
          "internalType": "uint64",
          "name": "amount",
          "type": "uint64"
        }
      ],
      "name": "withdrawSalary",
      "outputs": [],
      "stateMutability": "nonpayable",
      "type": "function"
    }
  ],
  "bytecode": "0x60806040523480156200001157600080fd5b5060405162001f3a38038062001f3a8339810160408190526200003491620002bc565b620000eb6200004262000106565b80517f9e7b61f58c47dc699ac88507c4f5bb9f121c03808c5676a8078fe583e464970080546001600160a01b03199081166001600160a01b039384161790915560208301517f9e7b61f58c47dc699ac88507c4f5bb9f121c03808c5676a8078fe583e46497018054831691841691909117905560408301517f9e7b61f58c47dc699ac88507c4f5bb9f121c03808c5676a8078fe583e46497028054909216921691909117905550565b600080546001600160a01b03191633179055600155620002d6565b604080516060810182526000808252602082018190529181019190915246600103620001a25750604080516060808201835260008083526020808401829052928401528251908101835273ca2e8f1f656cd25c01f05d0b243ab1ecd4a8ffb6815273d82385dada1ae3e969447f20a3164f6213100e75918101919091527377627828a55156b04ac0dc0eb30467f1a552bb039181019190915290565b4662aa36a703620002235750604080516060808201835260008083526020808401829052928401528251908101835273f0ffdc93b7e186bc2f8cb3daa75d86d1930a433d81527392c920834ec8941d2c77d188936e1f7a6f49c1279181019190915273be0e383937d564d7ff0bc3b46c51f0bf8d5c311a9181019190915290565b46617a6903620002a3575060408051606080820183526000808352602080840182905292840152825190810183527350157cffd6bbfa2dece204a89ec419c23ef5755d815273e3a9105a3a932253a70f126eb1e3b589c643dd249181019190915273901f8942346f7ab3a01f6d7613119bca447bb0309181019190915290565b6040516373cac13b60e01b815260040160405180910390fd5b600060208284031215620002cf57600080fd5b5051919050565b611c5480620002e66000396000f3fe6080604052600436106101355760003560e01c80638da5cb5b116100ab578063e03c012f1161006f578063e03c012f14610327578063e2c41dbc14610357578063e3366fed1461035f578063e6324ba014610381578063ea66543f146103a1578063f3cb8c31146103d157600080fd5b80638da5cb5b1461027a578063bca9a5c5146102b2578063c1839674146102d2578063c2a63e3b146102f2578063d108177a1461030757600080fd5b8063402dc4e4116100fd578063402dc4e4146101da5780635e0dc52b146101fa57806370f37d271461020f57806382e8d1921461022557806385e68531146102455780638927b0301461026557600080fd5b80630ae5e7391461013a5780631730bdfe1461015c5780632473debe14610185578063261e8b3a146101a5578063287bb7ed146101c5575b600080fd5b34801561014657600080fd5b5061015a610155366004611915565b6103f1565b005b34801561016857600080fd5b5061017260015481565b6040519081526020015b60405180910390f35b34801561019157600080fd5b506101726101a0366004611915565b6104d2565b3480156101b157600080fd5b5061015a6101c0366004611930565b61056b565b3480156101d157600080fd5b50600954610172565b3480156101e657600080fd5b506101726101f5366004611915565b61075f565b34801561020657600080fd5b5061015a6107f8565b34801561021b57600080fd5b5061017260095481565b34801561023157600080fd5b5061015a61024036600461195a565b61096a565b34801561025157600080fd5b5061015a610260366004611915565b610aa1565b34801561027157600080fd5b50610172610b56565b34801561028657600080fd5b5060005461029a906001600160a01b031681565b6040516001600160a01b03909116815260200161017c565b3480156102be57600080fd5b5061029a6102cd3660046119e1565b610b65565b3480156102de57600080fd5b506101726102ed366004611915565b610bb8565b3480156102fe57600080fd5b50600554610172565b34801561031357600080fd5b5061015a610322366004611915565b610c51565b34801561033357600080fd5b506103476103423660046119fa565b610e57565b604051901515815260200161017c565b61015a610e87565b34801561036b57600080fd5b50610374610f00565b60405161017c9190611a2d565b34801561038d57600080fd5b5061015a61039c36600461195a565b610f62565b3480156103ad57600080fd5b506103476103bc366004611915565b60066020526000908152604090205460ff1681565b3480156103dd57600080fd5b5061015a6103ec366004611915565b611099565b3360009081526006602052604090205460ff1661042157604051630ae9c7ed60e01b815260040160405180910390fd5b3360008181526008602090815260408083206001600160a01b03861684528252808320805460ff191660011790559282526002905220546104629082611238565b503360009081526003602052604090205461047d9082611238565b50336000908152600460205260409020546104989082611238565b506040516001600160a01b0382169033907f9f520b3bfc56d06f7065d10b4683b3f57ac8895d5026cd176dee95ce1454cb8d90600090a350565b6001600160a01b03811660009081526006602052604081205460ff1661050b57604051630ae9c7ed60e01b815260040160405180910390fd5b6001600160a01b038216600090815260086020908152604080832033845290915290205460ff1661054f5760405163ea8e4eb560e01b815260040160405180910390fd5b506001600160a01b031660009081526002602052604090205490565b3360009081526006602052604090205460ff1661059b57604051630ae9c7ed60e01b815260040160405180910390fd5b60006105a68261125d565b336000908152600460205260408120549192506105c38383611274565b905060006105db82856105d6600061125d565b6112ad565b905060006105e984836112f8565b336000818152600460205260409020829055909150610609908290611238565b506000546106219082906001600160a01b0316611238565b5061062b8161132a565b508567ffffffffffffffff1660095410156106595760405163356680b760e01b815260040160405180910390fd5b8567ffffffffffffffff16600960008282546106759190611a90565b9091555050604051600090339067ffffffffffffffff8916908381818185875af1925050503d80600081146106c6576040519150601f19603f3d011682016040523d82523d6000602084013e6106cb565b606091505b50509050806107175760405162461bcd60e51b8152602060048201526013602482015272115512081d1c985b9cd9995c8819985a5b1959606a1b60448201526064015b60405180910390fd5b60405167ffffffffffffffff8816815233907f7084f5476618d8e60b11ef0d7d3f06914655adb8793e28ff7f018d4c76d505d59060200160405180910390a250505050505050565b6001600160a01b03811660009081526006602052604081205460ff1661079857604051630ae9c7ed60e01b815260040160405180910390fd5b6001600160a01b038216600090815260086020908152604080832033845290915290205460ff166107dc5760405163ea8e4eb560e01b815260040160405180910390fd5b506001600160a01b031660009081526004602052604090205490565b6000546001600160a01b03163314610823576040516330cd747160e01b815260040160405180910390fd5b60055460005b818110156109335760006005828154811061084657610846611aa3565b60009182526020808320909101546001600160a01b031680835260028252604080842054600390935283205490935061087f919061134c565b6001600160a01b038316600090815260046020526040812054919250906108a6908361134c565b6001600160a01b038416600090815260046020526040902081905590506108cd8184611238565b506000546108e59082906001600160a01b0316611238565b506108ef8161132a565b5060006108fc600061125d565b6001600160a01b038516600090815260036020526040902081905590506109228161132a565b505060019093019250610829915050565b506040518181527f61ae2d8764a242523a9d6c1911ba021669b4b6056a6d4061a0cbeae751e615fe9060200160405180910390a150565b6000546001600160a01b03163314610995576040516330cd747160e01b815260040160405180910390fd5b6001600160a01b03841660009081526006602052604090205460ff166109ce57604051630ae9c7ed60e01b815260040160405180910390fd5b6000610a108484848080601f01602080910402602001604051908101604052809392919081815260200183838082843760009201919091525061137e92505050565b9050610a1c8186611238565b50600054610a349082906001600160a01b0316611238565b50610a3e8161132a565b506001600160a01b038516600081815260036020908152604080832085905560088252808320909152808220805460ff19166001179055517fbd51110275507680c3ef5e2c8041a91c0955037e36e4ad8eb71f8548209a80b89190a25050505050565b3360009081526006602052604090205460ff16610ad157604051630ae9c7ed60e01b815260040160405180910390fd5b6000546001600160a01b0390811690821603610b005760405163ea8e4eb560e01b815260040160405180910390fd5b3360008181526008602090815260408083206001600160a01b0386168085529252808320805460ff19169055519092917f825c8be24eb0df19500f63e86c29e7d0d951e73056b889b891d85e40938d9b6e91a350565b6000610b606113e8565b905090565b6005546000908210610b8a5760405163ea8e4eb560e01b815260040160405180910390fd5b60058281548110610b9d57610b9d611aa3565b6000918252602090912001546001600160a01b031692915050565b6001600160a01b03811660009081526006602052604081205460ff16610bf157604051630ae9c7ed60e01b815260040160405180910390fd5b6001600160a01b038216600090815260086020908152604080832033845290915290205460ff16610c355760405163ea8e4eb560e01b815260040160405180910390fd5b506001600160a01b031660009081526003602052604090205490565b6000546001600160a01b03163314610c7c576040516330cd747160e01b815260040160405180910390fd5b6001600160a01b03811660009081526006602052604090205460ff16610cb557604051630ae9c7ed60e01b815260040160405180910390fd5b6001600160a01b0381166000908152600660209081526040808320805460ff191690556007909152812054610cec90600190611a90565b600554909150600090610d0190600190611a90565b9050808214610d9d57600060058281548110610d1f57610d1f611aa3565b600091825260209091200154600580546001600160a01b039092169250829185908110610d4e57610d4e611aa3565b600091825260209091200180546001600160a01b0319166001600160a01b0392909216919091179055610d82836001611ab9565b6001600160a01b039091166000908152600760205260409020555b6005805480610dae57610dae611acc565b60008281526020808220830160001990810180546001600160a01b03191690559092019092556001600160a01b03851682526007905260408120819055610df48161125d565b6001600160a01b03851660008181526002602090815260408083208590556003825280832085905560049091528082208490555192935090917fabae6e64cb4315875c29d42347a312f5e9fce4ab564e9722b43dd78d0751135a9190a250505050565b6001600160a01b0380831660009081526008602090815260408083209385168352929052205460ff165b92915050565b6000546001600160a01b03163314610eb2576040516330cd747160e01b815260040160405180910390fd5b3460096000828254610ec49190611ab9565b909155505060405134815233907f543ba50a5eec5e6178218e364b1d0f396157b3c8fa278522c2cb7fd99407d4749060200160405180910390a2565b60606005805480602002602001604051908101604052809291908181526020018280548015610f5857602002820191906000526020600020905b81546001600160a01b03168152600190910190602001808311610f3a575b5050505050905090565b6000546001600160a01b03163314610f8d576040516330cd747160e01b815260040160405180910390fd5b6001600160a01b03841660009081526006602052604090205460ff16610fc657604051630ae9c7ed60e01b815260040160405180910390fd5b60006110088484848080601f01602080910402602001604051908101604052809392919081815260200183838082843760009201919091525061137e92505050565b90506110148186611238565b5060005461102c9082906001600160a01b0316611238565b506110368161132a565b506001600160a01b038516600081815260026020908152604080832085905560088252808320909152808220805460ff19166001179055517fcbe1ac3a739a6056ceab8ccc2fdf1eb8bc778acad285b3dd81099b438cd8e9079190a25050505050565b6000546001600160a01b031633146110c4576040516330cd747160e01b815260040160405180910390fd5b6001600160a01b03811660009081526006602052604090205460ff16156110fe57604051630b53684b60e21b815260040160405180910390fd5b6001600160a01b0381166000908152600660205260409020805460ff1916600190811790915560055461113091611ab9565b6001600160a01b038216600081815260076020526040812092909255600580546001810182559083527f036b6384b5eca791c62761152d0c79bb0604c104a5fb6f4eb0703f3154bb3db00180546001600160a01b03191690911790556111958161125d565b6001600160a01b0380841660009081526002602090815260408083208590556003825280832085905560048252808320859055600882528083208354851684529091528120805460ff19166001179055549192506111f591839116611238565b506111ff8161132a565b506040516001600160a01b038316907f041109cfe10cfa549abb66b986d0a294ecc6c9ad39000abcb9c2afd422c8bd6490600090a25050565b60008261124c57611249600061125d565b92505b611256838361141f565b5090919050565b6000610e818267ffffffffffffffff16600561149c565b60008261128857611285600061125d565b92505b8161129a57611297600061125d565b91505b6112a683836000611531565b9392505050565b6000836112c1576112be60006115e5565b93505b826112d3576112d0600061125d565b92505b816112e5576112e2600061125d565b91505b6112f0848484611603565b949350505050565b60008261130c57611309600061125d565b92505b8161131e5761131b600061125d565b91505b6112a68383600061169e565b60008161133e5761133b600061125d565b91505b611348823061141f565b5090565b6000826113605761135d600061125d565b92505b816113725761136f600061125d565b91505b6112a683836000611705565b6000815160001461139c576113958383600561176c565b9050610e81565b8260008190036113b8576113b0600061125d565b915050610e81565b6113c28133611871565b61139557604051630276b5d960e01b81526004810182905233602482015260440161070e565b6000466001036113f85750600190565b4662aa36a703611409575061271190565b46617a6903611419575060001990565b50600090565b6000600080516020611bff8339815191528054604051635ca4b5b160e11b8152600481018690526001600160a01b03858116602483015292935091169063b9496b6290604401600060405180830381600087803b15801561147f57600080fd5b505af1158015611493573d6000803e3d6000fd5b50505050505050565b600080516020611bdf83398151915254604051639cd07acb60e01b8152600091600080516020611bff833981519152916001600160a01b0390911690639cd07acb906114ee9087908790600401611b04565b6020604051808303816000875af115801561150d573d6000803e3d6000fd5b505050506040513d601f19601f820116820180604052508101906112f09190611b18565b60008082156115455750600160f81b611549565b5060005b600080516020611bdf83398151915254604051631d44e90160e21b8152600080516020611bff833981519152916001600160a01b031690637513a4049061159890899089908790600401611b31565b6020604051808303816000875af11580156115b7573d6000803e3d6000fd5b505050506040513d601f19601f820116820180604052508101906115db9190611b18565b9695505050505050565b6000610e81826115f65760006115f9565b60015b60ff16600061149c565b600080600080516020611bff8339815191526001810154604051637702dcff60e01b81526004810188905260248101879052604481018690529192506001600160a01b031690637702dcff906064016020604051808303816000875af1158015611671573d6000803e3d6000fd5b505050506040513d601f19601f820116820180604052508101906116959190611b18565b95945050505050565b60008082156116b25750600160f81b6116b6565b5060005b600080516020611bdf833981519152546040516303056db360e31b8152600080516020611bff833981519152916001600160a01b03169063182b6d989061159890899089908790600401611b31565b60008082156117195750600160f81b61171d565b5060005b600080516020611bdf8339815191525460405163022f65e760e31b8152600080516020611bff833981519152916001600160a01b03169063117b2f389061159890899089908790600401611b31565b600080516020611bdf8339815191525460405163045fc19560e11b8152600091600080516020611bff833981519152916001600160a01b03909116906308bf832a906117c2908890339089908990600401611b51565b6020604051808303816000875af11580156117e1573d6000803e3d6000fd5b505050506040513d601f19601f820116820180604052508101906118059190611b18565b8154604051630f8e573b60e21b8152600481018390523360248201529193506001600160a01b031690633e395cec90604401600060405180830381600087803b15801561185157600080fd5b505af1158015611865573d6000803e3d6000fd5b50505050509392505050565b600080600080516020611bff83398151915280546040516382027b6d60e01b8152600481018790526001600160a01b0386811660248301529293509116906382027b6d90604401602060405180830381865afa1580156118d5573d6000803e3d6000fd5b505050506040513d601f19601f820116820180604052508101906112f09190611bbc565b80356001600160a01b038116811461191057600080fd5b919050565b60006020828403121561192757600080fd5b6112a6826118f9565b60006020828403121561194257600080fd5b813567ffffffffffffffff811681146112a657600080fd5b6000806000806060858703121561197057600080fd5b611979856118f9565b935060208501359250604085013567ffffffffffffffff8082111561199d57600080fd5b818701915087601f8301126119b157600080fd5b8135818111156119c057600080fd5b8860208285010111156119d257600080fd5b95989497505060200194505050565b6000602082840312156119f357600080fd5b5035919050565b60008060408385031215611a0d57600080fd5b611a16836118f9565b9150611a24602084016118f9565b90509250929050565b6020808252825182820181905260009190848201906040850190845b81811015611a6e5783516001600160a01b031683529284019291840191600101611a49565b50909695505050505050565b634e487b7160e01b600052601160045260246000fd5b81810381811115610e8157610e81611a7a565b634e487b7160e01b600052603260045260246000fd5b80820180821115610e8157610e81611a7a565b634e487b7160e01b600052603160045260246000fd5b60548110611b0057634e487b7160e01b600052602160045260246000fd5b9052565b828152604081016112a66020830184611ae2565b600060208284031215611b2a57600080fd5b5051919050565b92835260208301919091526001600160f81b031916604082015260600190565b8481526000602060018060a01b038616602084015260806040840152845180608085015260005b81811015611b945786810183015185820160a001528201611b78565b50600060a0828601015260a0601f19601f830116850101925050506116956060830184611ae2565b600060208284031215611bce57600080fd5b815180151581146112a657600080fdfe9e7b61f58c47dc699ac88507c4f5bb9f121c03808c5676a8078fe583e46497019e7b61f58c47dc699ac88507c4f5bb9f121c03808c5676a8078fe583e4649700a26469706673582212204d2a76e15289d7fe7e5749c1db8b3b6413bcb784b2a4eebd280d494fac99b34f64736f6c63430008180033",
  "linkReferences": {},
  "deployedLinkReferences": {}
}